:020000040800F2
:1000000000000120A9420008B5400008094100088D
:10001000234100082B410008334100080000000084
:10002000000000000000000000000000813B00080C
:100030003B41000800000000913C0008F93C00082A
:1000400000000000F9420008F9420008F9420008E7
:10005000F9420008F9420008F9420008F942000894
:10006000F9420008F9420008F9420008F942000884
:10007000F9420008F9420008F9420008F942000874
:10008000F9420008F9420008F942000800000000A7
:10009000000000000000000000000000F94200081D
:1000A000F9420008F9420008F9420008F942000844
:1000B000D51D0008511F0008B1200008F9420008B2
:1000C000F9420008F9420008F942000889120008C4
:1000D000F9420008F9420008F94200080000000057
:1000E000F9420008F9420008F94200080000000047
:1000F000000000000000000000000000F9420008BD
:1001000000000000F942000811220008F94200082E
:1001100000000000000000000000000000000000DF
:10012000F9420008F9420008F9420008F9420008C3
:10013000F94200080000000000000000000000007C
:10014000000000000000000000000000F94200086C
:10015000F9420008F9420008F9420008F942000893
:10016000F9420008F9420008000000000000000009
:10017000000000000000000000000000000000007F
:10018000000000000000000000000000000000006F
:04019000F942000828
:1001A00010B5054C237833B9044B13B10448AFF3B1
:1001B00000800123237010BDC40000200000000057
:1001C0005443000808B5034B1BB103490348AFF380
:1001D000008008BD00000000C80000205443000853
:1001E00081F0004102E000BF83F0004330B54FEAE8
:1001F00041044FEA430594EA050F08BF90EA020F55
:100200001FBF54EA000C55EA020C7FEA645C7FEAE7
:10021000655C00F0E2804FEA5454D4EB5555B8BF0A
:100220006D420CDD2C4480EA020281EA030382EA7B
:10023000000083EA010180EA020281EA0303362D0D
:1002400088BF30BD11F0004F4FEA01314FF4801CE0
:100250004CEA113102D0404261EB410113F0004FF2
:100260004FEA03334CEA133302D0524263EB4303A9
:1002700094EA050F00F0A780A4F10104D5F1200E47
:100280000DDB02FA0EFC22FA05F2801841F10001A2
:1002900003FA0EF2801843FA05F359410EE0A5F176
:1002A00020050EF1200E012A03FA0EFC28BF4CF0A7
:1002B000020C43FA05F3C01851EBE37101F000455D
:1002C00007D54FF0000EDCF1000C7EEB00006EEB6A
:1002D0000101B1F5801F1BD3B1F5001F0CD34908F4
:1002E0005FEA30004FEA3C0C04F101044FEA44524B
:1002F00012F5800F80F09A80BCF1004F08BF5FEAD2
:10030000500C50F1000041EB045141EA050130BDB1
:100310005FEA4C0C404141EB0101013C28BFB1F5C3
:10032000801FE9D291F0000F04BF01460020B1FA0E
:1003300081F308BF2033A3F10B03B3F120020CDAE1
:100340000C3208DD02F1140CC2F10C0201FA0CF0BF
:1003500021FA02F10CE002F11402D8BFC2F1200C24
:1003600001FA02F120FA0CFCDCBF41EA0C019040DA
:10037000E41AA2BF01EB0451294330BD6FEA040423
:100380001F3C1CDA0C340EDC04F11404C4F120020E
:1003900020FA04F001FA02F340EA030021FA04F320
:1003A00045EA030130BDC4F10C04C4F1200220FA77
:1003B00002F001FA04F340EA0300294630BD21FAB5
:1003C00004F0294630BD94F0000F83F4801306BF7B
:1003D00081F480110134013D4EE77FEA645C18BF6F
:1003E0007FEA655C29D094EA050F08BF90EA020F06
:1003F00005D054EA000C04BF1946104630BD91EAFE
:10040000030F1EBF0021002030BD5FEA545C05D100
:100410004000494128BF41F0004130BD14F580043F
:100420003CBF01F5801130BD01F0004545F0FE41B3
:1004300041F470014FF0000030BD7FEA645C1ABFE8
:10044000194610467FEA655C1CBF0B46024650EA1F
:10045000013406BF52EA033591EA030F41F400214B
:1004600030BD00BF90F0000F04BF0021704730B5D1
:100470004FF4806404F132044FF000054FF00001A6
:1004800050E700BF90F0000F04BF0021704730B567
:100490004FF4806404F1320410F0004548BF40423C
:1004A0004FF000013EE700BF42004FEAE2014FEA91
:1004B00031014FEA02701FBF12F07F4393F07F4F6C
:1004C00081F06051704732F07F4208BF704793F06F
:1004D0007F4F04BF41F40021704730B54FF4607482
:1004E00001F0004521F000411CE700BF50EA010285
:1004F00008BF704730B54FF000050AE050EA01022E
:1005000008BF704730B511F0004502D5404261EB9D
:1005100041014FF4806404F132045FEA915C3FF4DE
:10052000D8AE4FF003025FEADC0C18BF03325FEA7B
:10053000DC0C18BF033202EBDC02C2F1200300FA2C
:1005400003FC20FA02F001FA03FE40EA0E0021FA51
:1005500002F11444BDE600BF70B54FF0FF0C4CF43F
:10056000E06C1CEA11541DBF1CEA135594EA0C0FF1
:1005700095EA0C0F00F0DEF82C4481EA030621EA2C
:100580004C5123EA4C5350EA013518BF52EA033567
:1005900041F4801143F4801338D0A0FB02CE4FF019
:1005A0000005E1FB02E506F00042E0FB03E54FF049
:1005B0000006E1FB03569CF0000F18BF4EF0010E41
:1005C000A4F1FF04B6F5007F64F5407404D25FEA3D
:1005D0004E0E6D4146EB060642EAC62141EA5551F0
:1005E0004FEAC52040EA5E504FEACE2EB4F1FD0C32
:1005F00088BFBCF5E06F1ED8BEF1004F08BF5FEAB0
:10060000500E50F1000041EB045170BD06F0004661
:1006100046EA010140EA020081EA0301B4EB5C040E
:10062000C2BFD4EB0C0541EA045170BD41F4801106
:100630004FF0000E013C00F3AB8014F1360FDEBF2B
:10064000002001F0004170BDC4F10004203C35DA07
:100650000C341BDC04F11404C4F1200500FA05F38A
:1006600020FA04F001FA05F240EA020001F000422B
:1006700021F0004110EBD37021FA04F642EB0601A1
:100680005EEA430E08BF20EAD37070BDC4F10C04CB
:10069000C4F1200500FA04F320FA05F001FA04F28F
:1006A00040EA020001F0004110EBD37041F100017B
:1006B0005EEA430E08BF20EAD37070BDC4F1200586
:1006C00000FA05F24EEA020E20FA04F301FA05F2EE
:1006D00043EA020321FA04F001F0004121FA04F296
:1006E00020EA020000EBD3705EEA430E08BF20EA66
:1006F000D37070BD94F0000F0FD101F000464000A0
:1007000041EB010111F4801F08BF013CF7D041EA21
:10071000060195F0000F18BF704703F00046520025
:1007200043EB030313F4801F08BF013DF7D043EAF6
:100730000603704794EA0C0F0CEA135518BF95EAAC
:100740000C0F0CD050EA410618BF52EA4306D1D133
:1007500081EA030101F000414FF0000070BD50EA52
:10076000410606BF1046194652EA430619D094EADC
:100770000C0F02D150EA013613D195EA0C0F05D1C6
:1007800052EA03361CBF104619460AD181EA03011A
:1007900001F0004141F0FE4141F470014FF00000D2
:1007A00070BD41F0FE4141F4780170BD70B54FF06D
:1007B000FF0C4CF4E06C1CEA11541DBF1CEA1355ED
:1007C00094EA0C0F95EA0C0F00F0A7F8A4EB0504CF
:1007D00081EA030E52EA03354FEA013100F08880C6
:1007E0004FEA03334FF0805545EA131343EA12638F
:1007F0004FEA022245EA111545EA10654FEA002644
:100800000EF000419D4208BF964244F1FD0404F5FC
:10081000407402D25B084FEA3202B61A65EB030558
:100820005B084FEA32024FF480104FF4002CB6EB15
:10083000020E75EB030E22BFB61A754640EA0C0095
:100840005B084FEA3202B6EB020E75EB030E22BFD5
:10085000B61A754640EA5C005B084FEA3202B6EB16
:10086000020E75EB030E22BFB61A754640EA9C00D5
:100870005B084FEA3202B6EB020E75EB030E22BFA5
:10088000B61A754640EADC0055EA060E18D04FEA63
:10089000051545EA16754FEA06164FEAC30343EA03
:1008A00052734FEAC2025FEA1C1CC0D111F4801FD0
:1008B0000BD141EA00014FF000004FF0004CB6E7C9
:1008C00011F4801F04BF01430020B4F1FD0C88BF68
:1008D000BCF5E06F3FF6AFAEB5EB030C04BFB6EB73
:1008E000020C5FEA500C50F1000041EB045170BD66
:1008F0000EF0004E4EEA113114EB5C04C2BFD4EB93
:100900000C0541EA045170BD41F480114FF0000E16
:10091000013C90E645EA060E8DE60CEA135594EA92
:100920000C0F08BF95EA0C0F3FF43BAF94EA0C0F95
:100930000AD150EA01347FF434AF95EA0C0F7FF40A
:1009400025AF104619462CE795EA0C0F06D152EA5E
:1009500003353FF4FDAE1046194622E750EA410642
:1009600018BF52EA43067FF4C5AE50EA41047FF453
:100970000DAF52EA43057FF4EBAE12E74A0011D205
:1009800012F5001211D20DD56FF47873B3EB6252E9
:100990000ED44FEAC12343F0004343EA505323FAF5
:1009A00002F070474FF00000704750EA013002D16A
:1009B0004FF0FF3070474FF0000070474FEA4102A0
:1009C000B2F1E04324BFB3F5001CDCF1FE5C0DD9AD
:1009D00001F0004C4FEAC0024CEA5070B2F1004FF7
:1009E00040EB830008BF20F00100704711F0804FFA
:1009F00021D113F13872BCBF01F00040704741F4BF
:100A000080114FEA5252C2F11802C2F1200C10FAC2
:100A10000CF320FA02F018BF40F001004FEAC123A6
:100A20004FEAD32303FA0CFC40EA0C0023FA02F34A
:100A30004FEA4303CCE77FEA625307D150EA013320
:100A40001EBF4FF0FE4040F44000704701F00040F0
:100A500040F0FE4040F40000704700BF80B584B015
:100A600000AF78600023FB817B681B68A04A93423B
:100A700063D101214FF4805001F046FE0121012095
:100A800001F042FE02E0FB890133FB817B681B8998
:100A90001A46FB8942FA03F303F00103002BF2D05C
:100AA0007B685B68F9890522184601F071FD002317
:100AB000FB8102E0FB890133FB817B681B8A1A46BC
:100AC000FB8942FA03F303F00103002BF2D07B68A9
:100AD000DB68F9890522184601F05AFD0023FB81E5
:100AE00002E0FB890133FB817B681B8B1A46FB8983
:100AF00042FA03F303F00103002BF2D07B685B6939
:100B0000F9890522184601F043FD0023FB8102E02C
:100B1000FB890133FB817B681B8C1A46FB8942FAF7
:100B200003F303F00103002BF2D07B68DB69F98942
:100B30000522184601F02CFD09E27B681B686D4A0E
:100B4000934261D101214FF4804001F0BDFD0023AB
:100B5000FB8102E0FB890133FB817B681B891A461C
:100B6000FB8942FA03F303F00103002BF2D07B6808
:100B70005B68F9890522184601F00AFD0023FB8114
:100B800002E0FB890133FB817B681B8A1A46FB89E3
:100B900042FA03F303F00103002BF2D07B68DB6819
:100BA000F9890522184601F0F3FC0023FB8102E0DD
:100BB000FB890133FB817B681B8B1A46FB8942FA58
:100BC00003F303F00103002BF2D07B685B69F98922
:100BD0000522184601F0DCFC0023FB8102E0FB89C2
:100BE0000133FB817B681B8C1A46FB8942FA03F3B5
:100BF00003F00103002BF2D07B68DB69F989052241
:100C0000184601F0C5FCA2E17B681B683A4A934292
:100C100061D10023FB8101214FF4004001F054FD1C
:100C200002E0FB890133FB817B681B891A46FB8943
:100C300042FA03F303F00103002BF2D07B685B68F8
:100C4000F9890622184601F0A3FC0023FB8102E08B
:100C5000FB890133FB817B681B8A1A46FB8942FAB8
:100C600003F303F00103002BF2D07B68DB68F98902
:100C70000622184601F08CFC0023FB8102E0FB8970
:100C80000133FB817B681B8B1A46FB8942FA03F315
:100C900003F00103002BF2D07B685B69F98906221F
:100CA000184601F075FC0023FB8102E0FB8901334B
:100CB000FB817B681B8C1A46FB8942FA03F303F025
:100CC0000103002BF2D07B68DB69F9890622184604
:100CD00001F05EFC3BE17B681B68084A934269D1E6
:100CE00001214FF4005001F00FFD0023FB810AE0C9
:100CF0000030014000380040003C0040003401401A
:100D0000FB890133FB817B681B891A46FB8942FA08
:100D100003F303F00103002BF2D07B685B68F989D1
:100D20000522184601F034FC0023FB8102E0FB8918
:100D30000133FB817B681B8A1A46FB8942FA03F365
:100D400003F00103002BF2D07B68DB68F9890522F0
:100D5000184601F01DFC0023FB8102E0FB890133F2
:100D6000FB817B681B8B1A46FB8942FA03F303F075
:100D70000103002BF2D07B685B69F98905221846D4
:100D800001F006FC0023FB8102E0FB890133FB81BB
:100D90007B681B8C1A46FB8942FA03F303F00103BC
:100DA000002BF2D07B68DB69F9890522184601F037
:100DB000EFFBCCE07B681B688F4A934261D1012135
:100DC0004FF4801001F0A0FC0023FB8102E0FB89BE
:100DD0000133FB817B681B891A46FB8942FA03F3C6
:100DE00003F00103002BF2D07B685B68F9890522D0
:100DF000184601F0CDFB0023FB8102E0FB890133A3
:100E0000FB817B681B8A1A46FB8942FA03F303F0D5
:100E10000103002BF2D07B68DB68F98905221846B4
:100E200001F0B6FB0023FB8102E0FB890133FB816B
:100E30007B681B8B1A46FB8942FA03F303F001031C
:100E4000002BF2D07B685B69F9890522184601F016
:100E50009FFB0023FB8102E0FB890133FB817B6860
:100E60001B8C1A46FB8942FA03F303F00103002BA3
:100E7000F2D07B68DB69F9890522184601F088FB0E
:100E800065E07B681B685D4A934260D101214FF4A5
:100E9000001001F039FC0023FB8102E0FB890133E3
:100EA000FB817B681B891A46FB8942FA03F303F036
:100EB0000103002BF2D07B685B68F9890522184694
:100EC00001F066FB0023FB8102E0FB890133FB811B
:100ED0007B681B8A1A46FB8942FA03F303F001037D
:100EE000002BF2D07B68DB68F9890522184601F0F7
:100EF0004FFB0023FB8102E0FB890133FB817B6810
:100F00001B8B1A46FB8942FA03F303F00103002B03
:100F1000F2D07B685B69F9890522184601F038FB3D
:100F20000023FB8102E0FB890133FB817B681B8C82
:100F30001A46FB8942FA03F303F00103002BF2D0B7
:100F40007B68DB69F9890522184601F021FB7B6883
:100F50001B891A462A4B1A607B685B682849184629
:100F600001F068FA7B681B8A1A46254B1A607B6879
:100F7000DB682349184601F05DFA7B681B8B1A4633
:100F80001F4B1A607B685B691D49184601F052FAD5
:100F90001C4B5B88002B0DD17B681B8C1A46184BB1
:100FA0001A60174B00221A717B68DB6914491846D6
:100FB00001F040FA7B681B681249184601F0C4FB37
:100FC0007B681B680121184601F002FC01226021A8
:100FD0000D4801F04AFC23233B7200237B7200235F
:100FE000BB720123FB7207F10803184601F0C0F938
:100FF00000BF1037BD4680BD005001400054014085
:10100000A4000020900000200030014080B500AF17
:101010000A4800F089F90A4800F086F9094800F00A
:1010200009FB094800F006FB084800F003FB0848EC
:10103000FFF714FD01F0F6FA00BF80BD00000020AC
:10104000180000205800002044000020300000203C
:101050006C00002080B582B000AF0223FB7100F06D
:1010600009F80346FB71FFF7D1FFFB7918460837F3
:10107000BD4680BD80B586B002AF0223FB7300235E
:10108000019303230093002364220F490F4802F0C9
:1010900057F8B860BB68012B01D00123FB73002314
:1010A000019302230093002364220949094802F0B6
:1010B00047F878607B68012B01D00123FB73FB7B31
:1010C00018461037BD4680BD6C430008D910000893
:1010D000804300081112000880B584B000AF78602A
:1010E0000023FB73404B00221A80404B00221A80E1
:1010F0003F4B00221A800023FB733EE03D4800F086
:10110000DDFB3D4800F0DAFB3C4800F0D7FB0F2048
:1011100002F046F9374800F0EFFBF0EE407AFCEEC3
:10112000E77A17EE903A9AB22F4B1B8813449AB283
:101130002D4B1A80304800F0DFFBF0EE407AFCEED9
:10114000E77A17EE903A9AB2284B1B8813449AB26A
:10115000264B1A80294800F0CFFBF0EE407AFCEED7
:10116000E77A17EE903A9AB2214B1B8813449AB251
:101170001F4B1A80FB7B0133FB73FB7B022BBDD91A
:10118000194B1B881E4AA2FB03235B089AB2164B1D
:101190001A80164B1B881A4AA2FB03235B089AB2DB
:1011A000124B1A80124B1B88154AA2FB03235B08C3
:1011B0009AB20F4B1A800C4B1B8843F480539AB29F
:1011C000104B1A80094B1B8843F400539AB20E4B04
:1011D0001A80074B1B8843F440539AB20B4B1A807A
:1011E000FA2002F0DDF87DE7EA000020EC000020A4
:1011F000EE000020580000204400002030000020B5
:10120000ABAAAAAAE0000020E2000020E40000202F
:1012100080B582B000AF7860174800F0A5F9F0EE15
:10122000407AFCEEE77AC7ED007A3B78DBB21A46EB
:10123000124B1A80124800F097F9F0EE407AFCEE5B
:10124000E77AC7ED007A3B78DBB21A460D4B1A807D
:101250000A4B1B8843F480439AB2084B1A80094B0F
:101260001B8843F4A0439AB2064B1A80322002F046
:1012700097F800BFD0E700BF18000020E60000206C
:1012800000000020E800002080B582B000AF0023FD
:10129000FB711F4801F0BCFA0346FB71FB79013B6F
:1012A000042B30D801A252F823F000BFC11200086D
:1012B000CF120008DD120008EB120008F912000836
:1012C000144B1B881946124801F0AFFA1BE0124B71
:1012D0001B8819460E4801F0A8FA14E00F4B1B8832
:1012E00019460B4801F0A1FA0DE00D4B1B88194679
:1012F000074801F09AFA06E00A4B1B881946044891
:1013000001F093FA00BF00BF0837BD4680BD00BFA3
:1013100000300140E0000020E2000020E400002056
:10132000E6000020E800002080B584B000AF7860BF
:101330000023BB817B689B881A467D4B1A607B68C3
:101340009B891A467B4B1A607B681B687A4A9342DA
:1013500004D10121012001F097F912E07B681B689C
:10136000764A934204D10121022001F08DF908E070
:101370007B681B68724A934203D10121042001F06B
:1013800083F97B689A687B681B689A421CD07B68EB
:101390009B68694A934204D10121012001F074F94C
:1013A00012E07B689B68664A934204D101210220C7
:1013B00001F06AF908E07B689B68614A934203D1B7
:1013C0000121042001F060F97B681B695D4A9342AA
:1013D00006D10121012001F097F90123FB7359E0A7
:1013E0007B681B69B3F1804F06D10121012001F018
:1013F0006BF90123FB734DE07B681B69524A9342F2
:1014000006D10121022001F05FF90223FB7341E0C4
:101410007B681B694D4A934206D10121042001F0EB
:1014200053F90223FB7335E07B681B69484A9342FA
:1014300006D10121082001F047F90223FB7329E0BE
:101440007B681B69434A934207D101214FF48030E6
:1014500001F05AF90323FB731CE07B681B693E4AC9
:10146000934207D101214FF4003001F04DF90323DD
:10147000FB730FE07B681B69384A93420AD1012154
:101480004FF4802001F040F90323FB7302E0BB8995
:101490000133BB817B689B881A46BB8942FA03F300
:1014A00003F00103002BF2D07B681B68204918462B
:1014B00000F0C0FF7B681B68FA7BB989184601F011
:1014C00067F87B689B681B49184600F0B3FF7B6890
:1014D0001B694FF6FF71184601F0A0FA204801F091
:1014E00061FA7B681B691E49184601F0EFF97B68B9
:1014F0001B7D002B07D17B68186900230022502137
:1015000001F01DFC0AE07B681B7D042B06D17B6883
:10151000186900230022602101F011FC7B681B691F
:101520000121184601F094FA00BF1037BD4680BD76
:10153000AC000020B4000020000002400004024083
:101540000008024000000140000400400008004084
:10155000000C0040004001400044014000480140B0
:10156000F00000200000000080B586B000AF786079
:101570007B681B69184601F05FFA0346FB827B68B3
:101580001B690021184601F03BFAFB8A1846FEF75A
:1015900079FF26A3D3E90023FFF708F902460B469B
:1015A000104619464FF000021D4BFEF7D5FF0246CC
:1015B0000B46104619464FF000021A4BFEF7CCFFBF
:1015C00002460B4610461946FFF7F8F903463B6101
:1015D0003869FEF769FF10A3D3E90023FEF7BCFFCB
:1015E00002460B46104619464FF000020E4BFFF71D
:1015F000DDF802460B4610461946FFF7DFF90346B1
:10160000FB60FB6807EE903AB0EE670A1837BD46FC
:1016100080BD00BFAFF300801E6677349C6B344002
:1016200000C092400000154000004E4066666666AD
:101630006616804080B58AB000AF78600023FB84D6
:101640000121012001F020F80121022001F01CF805
:101650007B681B69B3F1804F04D10121012001F0A7
:1016600033F81CE07B681B69914A934204D1012145
:10167000022001F029F812E07B681B698D4A934231
:1016800004D10121042001F01FF808E07B681B69E8
:10169000894A934203D10121082001F015F87B68A3
:1016A0001B89FB61012387F82030002387F8223053
:1016B000022387F82330002387F821307B681B68DA
:1016C00007F11C021146184600F0B4FE7B685B89E6
:1016D000FB61022387F82030002387F822300223A1
:1016E00087F82330002387F821307B685B6807F197
:1016F0001C021146184600F09DFE02E0FB8C0133EF
:10170000FB847B685B891A46FB8C42FA03F303F087
:101710000103002BF2D07B681B69B3F1804F14D119
:101720007B685B68F98C0122184600F031FF1C23AE
:101730003B7600237B760123BB760123FB7607F102
:101740001803184600F014FE4CE07B681B69584AE9
:10175000934214D17B685B68F98C0222184600F032
:1017600017FF1D233B7600237B760123BB760123E5
:10177000FB7607F11803184600F0FAFD32E07B68AB
:101780001B694C4A934214D17B685B68F98C022236
:10179000184600F0FDFE1E233B7600237B760123D6
:1017A000BB760123FB7607F11803184600F0E0FD35
:1017B00018E07B681B69404A934213D17B685B68E1
:1017C000F98C0222184600F0E3FE32233B76002318
:1017D0007B760123BB760123FB7607F118031846BD
:1017E00000F0C6FD7B681B7BBB810A23FB810123C4
:1017F0003B8200237B820023BB827B681B6907F14D
:101800000C021146184601F043F97B681B6901225E
:101810000A21184601F0E0F87B681B69012118468F
:1018200001F016F97B681B7B0C2B3DD801A252F806
:1018300023F000BF69180008A9180008A9180008BB
:10184000A918000879180008A9180008A9180008A4
:10185000A918000889180008A9180008A918000884
:10186000A9180008991800087B681B690122022149
:10187000184601F005FA17E07B681B690122042174
:10188000184601F0FDF90FE07B681B690122082171
:10189000184601F0F5F907E07B681B690122102169
:1018A000184601F0EDF900BF00BF2837BD4680BDE6
:1018B0000004004000080040000C004080B582B0E9
:1018C00000AF78607B681A687B681B8919461046F0
:1018D00000F03FFE1E2000F04DFA7B681A687B681E
:1018E0001B891946104600F043FE00BF0837BD466D
:1018F00080BD00000000000080B582B000AF7860BD
:101900007B681B69B3F1804F78D19F4B1B889AB2DB
:101910009E4B1B889BB29A4232D99B4B1B889AB232
:101920009A4B1B889BB2D31A9AB2994B1A80984B48
:101930001B881846FEF7A6FD4FF00002954BFEF7F8
:101940000BFE02460B46104619468DA3D3E9002331
:10195000FEF702FE02460B46104619464FF0000203
:101960004FF08043FEF722FF02460B461046194611
:10197000FFF724F80346884A1360874B1B68D9E1B8
:10198000814B1B889AB2814B1B889BB29A4280F094
:10199000D0817D4B1B889AB27C4B1B889BB2D31A9B
:1019A0009BB2013B9AB27A4B1A80794B1B8818463E
:1019B000FEF768FD4FF00002764BFEF7CDFD0246C4
:1019C0000B46104619466EA3D3E90023FEF7C4FD6B
:1019D00002460B46104619464FF000024FF0804376
:1019E000FEF7E4FE02460B4610461946FEF7E6FFF8
:1019F0000346694A1360684B1B689BE17B681B695F
:101A0000664A934278D1664B1B889AB2654B1B8815
:101A10009BB29A4232D9624B1B889AB2614B1B88A7
:101A20009BB2D31A9AB25A4B1A80594B1B8818464C
:101A3000FEF728FD4FF00002564BFEF78DFD0246E3
:101A40000B46104619464EA3D3E90023FEF784FD4A
:101A500002460B46104619464FF000024FF08043F5
:101A6000FEF7A4FE02460B4610461946FEF7A6FFF7
:101A700003464D4A13604C4B1B685BE1484B1B8887
:101A80009AB2484B1B889BB29A4280F05281444BD9
:101A90001B889AB2434B1B889BB2D31A9BB2013B63
:101AA0009AB23B4B1A803A4B1B881846FEF7EAFC69
:101AB0004FF00002374BFEF74FFD02460B46104633
:101AC00019462FA3D3E90023FEF746FD02460B4635
:101AD000104619464FF000024FF08043FEF766FEB5
:101AE00002460B4610461946FEF768FF03462E4A8B
:101AF00013602D4B1B681DE17B681B692B4A9342C9
:101B000040F09A802A4B1B889AB22A4B1B889BB2C2
:101B10009A4253D9264B1B889AB2264B1B889BB2FC
:101B2000D31A9AB21A4B1A80194B1B881846FEF723
:101B3000A9FC4FF00002174BFEF70EFD02460B46C4
:101B4000104619460EA3D3E90023FEF705FD024611
:101B50000B46104619464FF000024FF08043FEF747
:101B600025FE02460B4610461946FEF727FF0346A0
:101B7000114A1360104B1B68DCE000BFAFF300801C
:101B80009CC420B07268A13FFE000020FC00002031
:101B90000C0100200000E63F10010020000400407E
:101BA0000201002000010020140100200008004074
:101BB000060100200401002018010020644B1B884E
:101BC0009AB2644B1B889BB29A4280F0B280604B01
:101BD0001B889AB25F4B1B889BB2D31A9BB2013B06
:101BE0009AB25D4B1A805C4B1B881846FEF74AFC84
:101BF0004FF00002594BFEF7AFFC02460B46104671
:101C0000194651A3D3E90023FEF7A6FC02460B4672
:101C1000104619464FF000024FF08043FEF7C6FD14
:101C200002460B4610461946FEF7C8FE03464C4ACC
:101C300013604B4B1B687DE07B681B69494A9342EC
:101C400077D1494B1B889AB2484B1B889BB29A426A
:101C500032D9454B1B889AB2444B1B889BB2D31A8E
:101C60009AB23D4B1A803C4B1B881846FEF70AFC83
:101C70004FF00002394BFEF76FFC02460B46104650
:101C8000194631A3D3E90023FEF766FC02460B4652
:101C9000104619464FF000024FF08043FEF786FDD4
:101CA00002460B4610461946FEF788FE0346304AA8
:101CB00013602F4B1B683DE02B4B1B889AB22B4BBC
:101CC0001B889BB29A4234D2274B1B889AB2274B6F
:101CD0001B889BB2D31A9BB2013B9AB21E4B1A804F
:101CE0001D4B1B881846FEF7CDFB4FF000021B4B27
:101CF000FEF732FC02460B461046194612A3D3E902
:101D00000023FEF729FC02460B46104619464FF009
:101D100000024FF08043FEF749FD02460B46104695
:101D20001946FEF74BFE0346114A1360104B1B6821
:101D300000E001E007EE903AB0EE670A0837BD46D2
:101D400080BD00BFAFF300809CC420B07268A13F8B
:101D500006010020040100200C0100200000E63FE5
:101D600018010020000C00400A010020080100209A
:101D70001C01002080B584B000AF0346FB80FB88C7
:101D80001846FEF77FFB4FF00002104BFEF7E4FB16
:101D900002460B46104619464FF000020C4BFEF768
:101DA00005FD02460B4610461946FEF7E7FD0346C1
:101DB000FB6002E0FB68013BFB60FB68002BF9D194
:101DC00000BF00BF1037BD4680BD00BF00003040DF
:101DD0000000084080B500AF02214FF0804000F0C5
:101DE00073FF0346002B24D002214FF0804000F007
:101DF00095FF544B1B78DBB2002B02D0012B0CD08B
:101E00009EE04FF0804000F097FE03469AB24E4BA2
:101E10001A804C4B01221A7092E04FF0804000F083
:101E20008BFE03469AB2494B1A80464B00221A7029
:101E300086E004214FF0804000F046FF0346002B6F
:101E400024D004214FF0804000F068FF3D4B1B7808
:101E5000DBB2002B02D0012B0CD071E04FF08040A0
:101E600000F076FE03469AB2374B1A80354B0122BA
:101E70001A7065E04FF0804000F06AFE03469AB2A7
:101E8000324B1A802F4B00221A7059E008214FF074
:101E9000804000F019FF0346002B24D008214FF0AA
:101EA000804000F03BFF274B1B78DBB2002B02D0B9
:101EB000012B0CD044E04FF0804000F055FE03466B
:101EC0009AB2214B1A801F4B01221A7038E04FF052
:101ED000804000F049FE03469AB21C4B1A80194B11
:101EE00000221A702CE010214FF0804000F0ECFE30
:101EF0000346002B24D010214FF0804000F00EFF4D
:101F0000104B1B78DBB2002B02D0012B0CD017E05A
:101F10004FF0804000F034FE03469AB20A4B1A801C
:101F2000084B01221A700BE04FF0804000F028FEB1
:101F300003469AB2054B1A80024B00221A7000BF6A
:101F400000BF80BD20010020FC000020FE0000201A
:101F500080B500AF0221524800F0B6FE0346002BC8
:101F600021D002214E4800F0D9FE4E4B1B78DBB247
:101F7000002B02D0012B0BD090E0494800F0DCFD93
:101F800003469AB2484B1A80464B01221A7085E0EC
:101F9000434800F0D1FD03469AB2444B1A80414BAE
:101FA00000221A707AE004213D4800F08DFE0346BD
:101FB000002B21D004213A4800F0B0FE394B1B78A9
:101FC000DBB2002B02D0012B0BD067E0344800F0CD
:101FD000BFFD03469AB2344B1A80324B01221A706D
:101FE0005CE02F4800F0B4FD03469AB22F4B1A80F4
:101FF0002C4B00221A7051E00821294800F064FEA1
:102000000346002B21D00821254800F087FE254BF0
:102010001B78DBB2002B02D0012B0BD03EE0204816
:1020200000F0A2FD03469AB21F4B1A801D4B0122FD
:102030001A7033E01A4800F097FD03469AB21B4B22
:102040001A80184B00221A7028E01021144800F062
:102050003BFE0346002B21D01021114800F05EFE0C
:10206000104B1B78DBB2002B02D0012B0BD015E0FC
:102070000B4800F085FD03469AB20B4B1A80094BC2
:1020800001221A700AE0064800F07AFD03469AB26F
:10209000064B1A80034B00221A7000BF00BF80BDA0
:1020A0000004004021010020000100200201002066
:1020B00080B500AF0221524800F006FE0346002B17
:1020C00021D002214E4800F029FE4E4B1B78DBB296
:1020D000002B02D0012B0BD090E0494800F02CFDE2
:1020E00003469AB2484B1A80464B01221A7085E08B
:1020F000434800F021FD03469AB2444B1A80414BFD
:1021000000221A707AE004213D4800F0DDFD03460C
:10211000002B21D004213A4800F000FE394B1B78F7
:10212000DBB2002B02D0012B0BD067E0344800F06B
:102130000FFD03469AB2344B1A80324B01221A70BB
:102140005CE02F4800F004FD03469AB22F4B1A8042
:102150002C4B00221A7051E00821294800F0B4FDF0
:102160000346002B21D00821254800F0D7FD254B40
:102170001B78DBB2002B02D0012B0BD03EE02048B5
:1021800000F0F2FC03469AB21F4B1A801D4B01224D
:102190001A7033E01A4800F0E7FC03469AB21B4B72
:1021A0001A80184B00221A7028E01021144800F001
:1021B0008BFD0346002B21D01021114800F0AEFD0D
:1021C000104B1B78DBB2002B02D0012B0BD015E09B
:1021D0000B4800F0D5FC03469AB20B4B1A80094B12
:1021E00001221A700AE0064800F0CAFC03469AB2BF
:1021F000064B1A80034B00221A7000BF00BF80BD3F
:1022000000080040220100200401002006010020F7
:1022100080B500AF0221524800F056FD0346002B66
:1022200021D002214E4800F079FD4E4B1B78DBB2E5
:10223000002B02D0012B0BD090E0494800F07CFC31
:1022400003469AB2484B1A80464B01221A7085E029
:10225000434800F071FC03469AB2444B1A80414B4C
:1022600000221A707AE004213D4800F02DFD03465B
:10227000002B21D004213A4800F050FD394B1B7847
:10228000DBB2002B02D0012B0BD067E0344800F00A
:102290005FFC03469AB2344B1A80324B01221A700B
:1022A0005CE02F4800F054FC03469AB22F4B1A8092
:1022B0002C4B00221A7051E00821294800F004FD3F
:1022C0000346002B21D00821254800F027FD254B8F
:1022D0001B78DBB2002B02D0012B0BD03EE0204854
:1022E00000F042FC03469AB21F4B1A801D4B01229C
:1022F0001A7033E01A4800F037FC03469AB21B4BC1
:102300001A80184B00221A7028E01021144800F09F
:10231000DBFC0346002B21D01021114800F0FEFC0D
:10232000104B1B78DBB2002B02D0012B0BD015E039
:102330000B4800F025FC03469AB20B4B1A80094B60
:1023400001221A700AE0064800F01AFC03469AB20D
:10235000064B1A80034B00221A7000BF00BF80BDDD
:10236000000C004023010020080100200A01002089
:1023700080B485B000AF78600023FB730023BB738B
:102380000F237B737B68DB78002B39D0274BDB680E
:10239000DB431B0ADBB203F00703FB73FB7BC3F1D8
:1023A0000403BB737A7BFB7B42FA03F37B737B688A
:1023B0005B781A46BB7B02FA03F3FB737B689A785F
:1023C0007B7B1340DAB2FB7B1343FB73FB7B1B016C
:1023D000FB73174A7B681B781344FA7B83F800234E
:1023E0007B681B7803F01F0311497A681278520941
:1023F000D2B21046012202FA03F341F820300FE076
:102400007B681B7803F01F0309497A681278520928
:10241000D2B2104601229A4000F1200341F8232055
:1024200000BF1437BD465DF8047B704700ED00E047
:1024300000E100E080B487B000AF7860396000232D
:102440007B6100233B610023FB6000237B6176E01E
:1024500001227B6902FA03F33B613B681B683A691E
:102460001340FB60FA683B699A4265D17B681A6841
:102470007B695B00032101FA03F3DB431A407B68AD
:102480001A607B681A683B681B7919467B695B0098
:1024900001FA03F31A437B681A603B681B79012B2E
:1024A00003D03B681B79022B2ED17B689A687B692D
:1024B0005B00032101FA03F3DB431A407B689A6057
:1024C0007B689A683B685B7919467B695B0001FA17
:1024D00003F31A437B689A607B685A687B699BB2F6
:1024E000194601238B40DB431A407B685A607B68A6
:1024F0005B683A68927911467A6992B201FA02F2FF
:1025000092B21A437B685A607B68DA687B699BB237
:102510005B00032101FA03F3DB431A407B68DA60B6
:102520007B68DA683B68DB7919467B695B0001FAF6
:1025300003F31A437B68DA607B6901337B617B6953
:102540000F2B85D900BF00BF1C37BD465DF8047B4B
:10255000704780B483B000AF78600B467B807A8888
:102560007B689A6100BF0C37BD465DF8047B7047FD
:1025700080B483B000AF78600B467B807B881A0400
:102580007B689A6100BF0C37BD465DF8047B7047DD
:1025900080B485B000AF78600B467B8013467B70BB
:1025A0000023FB600023BB607A787B8803F007037D
:1025B0009B0002FA03F3FB607B88DB089BB21A46A0
:1025C0007B68083253F822207B8803F007039B00C6
:1025D0000F2101FA03F3DB437988C90889B2084661
:1025E00002EA03017B6800F1080243F822107B88AD
:1025F000DB089BB21A467B68083253F82230FA682F
:102600001343BB607B88DB089BB21A467B680832A9
:10261000B96843F8221000BF1437BD465DF8047B4B
:102620007047000080B400AF144B1B68134A43F09E
:1026300001031360114B00229A60104B1B680F4A74
:1026400023F0A85323F4102313600C4B0C4A5A6058
:102650000A4B0C4AC3F88420084B1B68074A23F432
:1026600080231360054B0022DA60044B0022C3F87C
:102670008C2000BFBD465DF8047B704700380240E7
:10268000103000240030002080B483B000AF7860A8
:102690000B46FB70FB78002B06D00A4B1A6B0949DE
:1026A0007B6813430B6306E0064B1A6B7B68DB43C6
:1026B000044913400B6300BF0C37BD465DF8047B33
:1026C000704700BF0038024080B483B000AF78602C
:1026D0000B46FB70FB78002B06D00A4B1A6C09499D
:1026E0007B6813430B6406E0064B1A6C7B68DB4384
:1026F000044913400B6400BF0C37BD465DF8047BF2
:10270000704700BF0038024080B483B000AF7860EB
:102710000B46FB70FB78002B06D00A4B5A6C09491C
:102720007B6813434B6406E0064B5A6C7B68DB43C3
:10273000044913404B6400BF0C37BD465DF8047B71
:10274000704700BF0038024080B485B000AF7860A9
:1027500039600023FB817B681B88FB81FB8903F4C4
:102760004153FB813B681A883B685B8813439AB2EC
:102770003B689B8813439AB23B68DB8813439AB249
:102780003B681B8913439AB23B685B8913439AB237
:102790003B689B8913439AB23B68DB8913439AB227
:1027A000FB891343FB817B68FA891A807B689B8BCA
:1027B0009BB223F400639AB27B689A833B681A8ABF
:1027C0007B681A8200BF1437BD465DF8047B7047F2
:1027D00080B483B000AF78600B46FB70FB78002BB1
:1027E00008D07B681B889BB243F040039AB27B6899
:1027F0001A8007E07B681B889BB223F040039AB2E3
:102800007B681A8000BF0C37BD465DF8047B7047BB
:1028100080B483B000AF78607B689B899BB2184618
:102820000C37BD465DF8047B704780B483B000AFC1
:1028300078600B467B8000BF7B681B899BB203F0EE
:102840000203002BF8D07B687A889A8100BF7B68EE
:102850001B899BB203F08003002BF8D100BF00BF9F
:102860000C37BD465DF8047B704780B485B000AF7F
:1028700078600B46FB701346BB700023FB8100237E
:10288000BB81FB781B09DBB2FB81FB89012202FAC9
:1028900003F3BB81BB78002B08D07B689B889AB27E
:1028A000BB8913439AB27B689A8009E07B689B8856
:1028B0009AB2BB89DB439BB213409AB27B689A8081
:1028C00000BF1437BD465DF8047B704780B485B007
:1028D00000AF786039600023FB817B681B88FB8137
:1028E0007B68294A934213D07B68284A93420FD0D1
:1028F0007B68B3F1804F0BD07B68254A934207D0A9
:102900007B68244A934203D07B68234A934208D1D0
:10291000FB8923F07003FB813B685A88FB891343D2
:10292000FB817B681D4A93420CD07B681C4A934212
:1029300008D0FB8923F44073FB813B681A89FB892B
:102940001343FB817B68FA891A803B685A687B686D
:10295000DA623B681A887B681A857B680A4A934268
:1029600003D07B68094A934204D13B689B7A1A469C
:102970007B681A867B6801229A8200BF1437BD46A5
:102980005DF8047B704700BF000001400004014077
:102990000004004000080040000C0040001000400F
:1029A0000014004080B483B000AF78607B684FF0C3
:1029B000FF325A607B6800221A807B6800221A81ED
:1029C0007B6800225A807B6800229A7200BF0C3715
:1029D000BD465DF8047B704780B483B000AF78607B
:1029E0000B467B8013463B807B687A881A857B6820
:1029F0003A889A8200BF0C37BD465DF8047B704769
:102A000080B483B000AF786039607B683A685A62FE
:102A100000BF0C37BD465DF8047B704780B483B0BF
:102A200000AF786039607B683A68DA6200BF0C37C3
:102A3000BD465DF8047B704780B483B000AF78601A
:102A40007B685B6A18460C37BD465DF8047B7047AF
:102A500080B483B000AF78600B46FB70FB78002B2E
:102A600008D07B681B889BB243F001039AB27B6855
:102A70001A8007E07B681B889BB223F001039AB29F
:102A80007B681A8000BF0C37BD465DF8047B704739
:102A900080B582B000AF786039603B681B88002B3E
:102AA0000FD13B6859883B689A883B681B897868D6
:102AB00000F08FF93B68DB881946786800F06CF805
:102AC00036E03B681B88042B0FD13B6859883B6874
:102AD0009A883B681B89786800F0BEF93B68DB8800
:102AE0001946786800F074F822E03B681B88082BD0
:102AF0000FD13B6859883B689A883B681B89786886
:102B000000F0F7F93B68DB881946786800F07EF83A
:102B10000EE03B6859883B689A883B681B89786857
:102B200000F02FFA3B68DB881946786800F08AF8D5
:102B300000BF0837BD4680BD80B483B000AF786069
:102B40007B685B6B18460C37BD465DF8047B7047AD
:102B500080B483B000AF78607B689B6B18460C37FD
:102B6000BD465DF8047B704780B483B000AF7860E9
:102B70007B68DB6B18460C37BD465DF8047B7047FD
:102B800080B483B000AF78607B681B6C18460C374C
:102B9000BD465DF8047B704780B483B000AF7860B9
:102BA0000B467B807B681B8B9BB223F00C039AB295
:102BB0007B681A837B681B8B9AB27B8813439AB21B
:102BC0007B681A8300BF0C37BD465DF8047B7047F5
:102BD00080B483B000AF78600B467B807B681B8B32
:102BE0009BB223F440639AB27B681A837B681B8B89
:102BF0009AB27B881B029BB213439AB27B681A83FA
:102C000000BF0C37BD465DF8047B704780B483B0CD
:102C100000AF78600B467B807B689B8B9BB223F078
:102C20000C039AB27B689A837B689B8B9AB27B88F1
:102C300013439AB27B689A8300BF0C37BD465DF898
:102C4000047B704780B483B000AF78600B467B8014
:102C50007B689B8B9BB223F440639AB27B689A8318
:102C60007B689B8B9AB27B881B029BB213439AB200
:102C70007B689A8300BF0C37BD465DF8047B7047C4
:102C800080B483B000AF78600B467B8013467B70C6
:102C90007B78002B08D07B689B899AB27B88134392
:102CA0009AB27B689A8109E07B689B899AB27B889B
:102CB000DB439BB213409AB27B689A8100BF0C370A
:102CC000BD465DF8047B704780B485B000AF786086
:102CD0000B467B800023FB730023BB8100237B8199
:102CE0007B681B8A9AB27B881340BB817B689B8977
:102CF0009AB27B8813407B81BB89002B05D07B89EE
:102D0000002B02D00123FB7301E00023FB73FB7B4C
:102D100018461437BD465DF8047B704780B483B015
:102D200000AF78600B467B807B88DB439AB27B6880
:102D30001A8200BF0C37BD465DF8047B704780B532
:102D400084B000AFF860084611461A4603467B81FE
:102D50000B463B811346FB807B89602B06D1FB88A9
:102D600039890122F86800F077F805E0FB88398995
:102D70000122F86800F02DF87B891946F86800F008
:102D80000CF8FB681B899BB243F007039AB2FB68FF
:102D90001A8100BF1037BD4680BD80B485B000AF3A
:102DA00078600B467B800023FB817B681B89FB815D
:102DB000FB8923F07003FB81FA897B881343FB8135
:102DC0007B68FA891A8100BF1437BD465DF8047B21
:102DD000704780B487B000AFF860084611461A46C5
:102DE00003467B810B463B811346FB800023FB821D
:102DF0000023BB82FB681B8C9BB223F001039AB2B9
:102E0000FB681A84FB681B8BFB82FB681B8CBB82F4
:102E1000FB8A23F0F303FB82FB881B019AB23B89F8
:102E200013439AB2FB8A1343FB82BB8A23F00A0343
:102E3000BB827A89BB8A13439BB243F00103BB82F6
:102E4000FB68FA8A1A83FB68BA8A1A8400BF1C37A7
:102E5000BD465DF8047B704780B487B000AFF86072
:102E6000084611461A4603467B810B463B811346B2
:102E7000FB800023FB820023BB8200237B82FB6854
:102E80001B8C9BB223F010039AB2FB681A84FB6878
:102E90001B8BFB82FB681B8CBB827B891B017B82AB
:102EA000FB8A23F440731B051B0DFB82FB881B036D
:102EB0009AB2FB8A1343FB823B891B029AB2FB8ABC
:102EC0001343FB82BB8A23F0A003BB827A8ABB8AAE
:102ED00013439BB243F01003BB82FB68FA8A1A8348
:102EE000FB68BA8A1A8400BF1C37BD465DF8047BB4
:102EF000704780B487B000AFF860084611461A46A4
:102F000003467B810B463B811346FB800023FB82FB
:102F10000023BB8200237B82FB681B8C9BB223F4C3
:102F200080739AB2FB681A84FB689B8BFB82FB68F8
:102F30001B8CBB827B891B027B82FB8A23F0F30301
:102F4000FB82FB881B019AB23B8913439AB2FB8A2E
:102F50001343FB82BB8A23F42063BB827A8ABB8A39
:102F600013439BB243F48073BB82FB68FA8A9A8353
:102F7000FB68BA8A1A8400BF1C37BD465DF8047B23
:102F8000704780B487B000AFF860084611461A4613
:102F900003467B810B463B811346FB800023FB826B
:102FA0000023BB8200237B82FB681B8C9BB223F433
:102FB00080539AB2FB681A84FB689B8BFB82FB6888
:102FC0001B8CBB827B891B037B82FB8A23F44073AF
:102FD0001B051B0DFB823B891B029AB2FB8A134324
:102FE000FB82FB881B039AB2FB8A1343FB82BB8ADA
:102FF00023F400535B045B0CBB827A8ABB8A1343C5
:103000009BB243F48053BB82FB68FA8A9A83FB68C5
:10301000BA8A1A8400BF1C37BD465DF8047B70472E
:1030200080B483B000AF78607B6803F108027B68EE
:103030005A607B684FF0FF329A607B6803F10802A8
:103040007B68DA607B6803F108027B681A617B6841
:1030500000221A6000BF0C37BD465DF8047B704744
:1030600080B483B000AF78607B6800221A6100BF33
:103070000C37BD465DF8047B704780B485B000AF67
:10308000786039603B681B68BB60BB68B3F1FF3F89
:1030900003D17B681B69FB600CE07B680833FB6035
:1030A00002E0FB685B68FB60FB685B681B68BA68F2
:1030B0009A42F6D2FB685A683B685A603B685B6884
:1030C0003A689A603B68FA689A60FB683A685A60A6
:1030D0003B687A681A617B681B685A1C7B681A60B7
:1030E00000BF1437BD465DF8047B704780B485B0DF
:1030F00000AF78607B681B69FB607B685B687A68FF
:1031000092689A607B689B687A6852685A60FB682C
:103110005B687A689A4203D17B689A68FB685A6058
:103120007B6800221A61FB681B685A1EFB681A60E4
:10313000FB681B6818461437BD465DF8047B704772
:1031400080B58CB004AFF860B9603B601346FB807B
:10315000FB889B00184600F017FE78617B69002B06
:1031600013D04C2000F010FEF861FB69002B08D052
:103170004C220021F86901F0C0F8FB697A691A63F2
:1031800005E0786900F09AFE01E00023FB61FB692D
:10319000002B13D0FA8800230393FB690293FB6A88
:1031A0000193BB6A00933B68B968F86800F00EF8B9
:1031B000F86900F071F80123BB6102E04FF0FF33C2
:1031C000BB61BB6918462037BD4680BD80B586B05F
:1031D00000AFF860B9607A603B60BB6A1A6B7B68CD
:1031E00003F18043013B9B0013443B613B6923F0A7
:1031F00007033B61BB68002B1ED000237B6112E0FC
:10320000BA687B6913441978BA6A7B69134434330A
:103210000A461A70BA687B6913441B78002B06D0E3
:103220007B6901337B617B690F2BE9D900E000BF2B
:10323000BB6A002283F843203B6A042B01D9042394
:103240003B62BB6A3A6ADA62BB6A04331846FFF72C
:1032500007FFBB6A18331846FFF702FFBB6ABA6A5A
:103260001A613B6AC3F10502BB6A9A61BB6ABA6A1A
:103270005A623A68F968386900F034FC0246BB6A61
:103280001A607B6A002B02D07B6ABA6A1A6000BFA0
:103290001837BD4680BD000080B584B000AF7860AF
:1032A00000F0C2FC384B1B680133374A1360374BC0
:1032B0001B68002B09D1354A7B681360324B1B68B1
:1032C000012B10D100F0F4FA0DE0314B1B68002BFC
:1032D00009D12E4B1B68DA6A7B68DB6A9A4202D8F6
:1032E0002A4A7B6813602B4B1B680133294A136001
:1032F0007B68DB6A01229A40274B1B681343264AEE
:1033000013607B68DA6A254913469B0013449B00CF
:103310000B4404331B68FB607B68FA689A60FB68A7
:103320009A687B68DA60FB689B687A6804325A6046
:103330007B681A1DFB689A607B68DA6A13469B00FB
:1033400013449B00154A1A447B685A617B68DA6A09
:10335000124913469B0013449B000B441B68591CE5
:103360000E4813469B0013449B000344196000F071
:1033700075FC074B1B68002B01D0044B1B6800BF7A
:103380001037BD4680BD00BFFC0100202401002095
:10339000080200201802002004020020280100205A
:1033A00080B584B000AF78600023FB607B68002BA1
:1033B00008D000F055F80021786800F013FB00F009
:1033C0005DF8F860FB68002B07D1064B4FF0805288
:1033D0001A60BFF34F8FBFF36F8F00BF1037BD462A
:1033E00080BD00BF04ED00E080B584B002AF154B96
:1033F0000193002300930023802213491348FFF711
:103400009FFE78607B68012B15D14FF0BF0383F3DB
:103410001188BFF36F8FBFF34F8F3B6000BF0C4B22
:103420004FF0FF321A600B4B01221A600A4B002248
:103430001A6000F0CFFB094B1B6800BF0837BD4680
:1034400080BD00BF20020020904300088D38000896
:103450001C0200200802002000020020BC00002006
:1034600080B400AF044B1B680133034A136000BFF4
:10347000BD465DF8047B70472402002080B586B00D
:1034800000AF00237B610023FB6000F0CDFB624BAB
:103490001B68013B604A13605F4B1B68002B40F0C8
:1034A000B4805E4B1B68002B00F0AF808AE05C4B61
:1034B000DB68DB687B617B699B6ABB607B69DB697E
:1034C0007A69126A9A607B691B6A7A69D2695A6062
:1034D000BB685A687B6918339A4203D17B691A6AC0
:1034E000BB685A607B6900229A62BB681B685A1EDF
:1034F000BB681A607B695B697B607B699B687A69E2
:10350000D2689A607B69DB687A6992685A607B68E6
:103510005A687B6904339A4203D17B69DA687B6815
:103520005A607B6900225A617B681B685A1E7B685F
:103530001A607B69DB6A01229A403A4B1B6813438D
:10354000384A13607B69DA6A374913469B00134493
:103550009B000B4404331B683B607B693A689A60AC
:103560003B689A687B69DA603B689B687A690432D9
:103570005A607B691A1D3B689A607B69DA6A134658
:103580009B0013449B00284A1A447B695A617B695B
:10359000DA6A254913469B0013449B000B441B68C1
:1035A000591C214813469B0013449B000344196097
:1035B0007B69DA6A1D4B1B68DB6A9A4202D31C4B9B
:1035C00001221A60164B1B68002B7FF470AF7B69D9
:1035D000002B01D000F0EAF9164B1B683B613B69F8
:1035E000002B10D000F028F80346002B02D0104B1F
:1035F00001221A603B69013B3B613B69002BF1D121
:103600000C4B00221A600A4B1B6800F027FBFB687A
:1036100018461837BD4680BD24020020FC0100205A
:10362000BC01002004020020280100202401002009
:10363000100200200C02002080B588B000AF0023EB
:10364000FB61664B1B68002B40F0BD80644B1B6820
:103650000133BB61624ABB691360BB69002B10D1A7
:10366000604B1B687B61604B1B685E4A13605E4A5F
:103670007B6913605D4B1B6801335C4A136000F08B
:1036800095F95B4B1B68BA699A42C0F0A180554B13
:103690001B681B68002B04D1554B4FF0FF321A609A
:1036A00096E0504B1B68DB68DB683B613B695B68FD
:1036B000FB60BA69FB689A4203D24D4AFB6813600B
:1036C00086E03B695B69BB603B699B683A69D2688D
:1036D0009A603B69DB683A6992685A60BB685A68CD
:1036E0003B6904339A4203D13B69DA68BB685A608C
:1036F0003B6900225A61BB681B685A1EBB681A608E
:103700003B699B6A002B1ED03B699B6A7B603B69CF
:10371000DB693A69126A9A603B691B6A3A69D26945
:103720005A607B685A683B6918339A4203D13B69F7
:103730001A6A7B685A603B6900229A627B681B6840
:103740005A1E7B681A603B69DB6A01229A40294B4A
:103750001B681343274A13603B69DA6A26491346FC
:103760009B0013449B000B4404331B683B603B6984
:103770003A689A603B689A683B69DA603B689B6884
:103780003A6904325A603B691A1D3B689A603B698A
:10379000DA6A13469B0013449B00174A1A443B699C
:1037A0005A613B69DA6A144913469B0013449B0033
:1037B0000B441B68591C104813469B0013449B0084
:1037C0000344196063E70D4B1B6801330B4A136018
:1037D000FB6918462037BD4680BD00BF240200208B
:1037E00000020020B4010020B801002014020020D3
:1037F0001C02002004020020280100200C020020EE
:1038000080B485B000AF1C4B1B68002B03D01B4B52
:1038100001221A602AE0194B00221A60184B1B681B
:103820007B607B68B3FA83F3FB70FB78C3F11F0303
:10383000FB60FA6813469B0013449B00114A134433
:10384000BB60BB685B685A68BB685A60BB685A68F3
:10385000BB6808339A4204D1BB685B685A68BB688E
:103860005A60BB685B68DB68074A136000BF1437A7
:10387000BD465DF8047B7047240200201002002042
:1038800004020020280100202401002080B582B01D
:1038900000AF786000F04CF8044B4FF080521A6093
:1038A000BFF34F8FBFF36F8F00BFF3E704ED00E06E
:1038B00080B582B000AF00237B600CE07A681346CD
:1038C0009B0013449B00124A13441846FFF7A8FBC1
:1038D0007B6801337B607B68042BEFD90D48FFF7D1
:1038E0009FFB0D48FFF79CFB0C48FFF799FB0C482A
:1038F000FFF796FB0B48FFF793FB0B4B054A1A604B
:103900000A4B054A1A6000BF0837BD4680BD00BF9C
:10391000280100208C010020A0010020BC01002013
:10392000D0010020E8010020B4010020B8010020EF
:1039300080B582B000AF19E000F076F9104BDB687B
:10394000DB687B607B6804331846FFF7CFFB0D4BC9
:103950001B68013B0B4A13600B4B1B68013B0A4A77
:10396000136000F07BF9786800F010F8064B1B68D4
:10397000002BE1D100BF00BF0837BD4680BD00BFAE
:10398000D0010020FC010020E401002080B582B0BD
:1039900000AF78607B681B6B184600F08FFA786880
:1039A00000F08CFA00BF0837BD4680BD80B400AF80
:1039B0000A4B1B681B68002B04D1094B4FF0FF32E8
:1039C0001A6005E0054B1B68DB681B68044A13603E
:1039D00000BFBD465DF8047B704700BFB401002006
:1039E0001C02002080B586B000AF78603960364B8D
:1039F0001B687B61354B1B6804331846FFF776FB69
:103A00000346002B0BD1314B1B68DB6A012202FA03
:103A100003F3DA432E4B1B6813402D4A13607B6877
:103A2000B3F1FF3F24D13B68002B21D0294B5B68C9
:103A30003B61264B1B683A699A60244B1B683A69C4
:103A40009268DA60214B1A683B699B6804325A60BD
:103A50001E4B1B681A1D3B699A601C4B1B681D4A54
:103A60005A611C4B1B6801331A4A136000BF26E0E1
:103A70007A697B681344FB60144B1B68FA685A60D0
:103A8000FA687B699A4209D2134B1A680F4B1B687C
:103A9000043319461046FFF7F0FA10E00F4B1A688E
:103AA0000A4B1B68043319461046FFF7E6FA0C4B25
:103AB0001B68FA689A4202D2094AFB68136000BF89
:103AC0001837BD4680BD00BF000200202401002041
:103AD00004020020E8010020B8010020B401002009
:103AE0001C02002080B485B000AFF860B9607A6035
:103AF000FB68043BFB60FB684FF080721A60FB6858
:103B0000043BFB60BB6823F00102FB681A60FB68A2
:103B1000043BFB600C4AFB681A60FB68143BFB60CB
:103B20007A68FB681A60FB68043BFB60FB686FF017
:103B300002021A60FB68203BFB60FB6818461437E2
:103B4000BD465DF8047B70474D3B000880B483B0F0
:103B500000AF00233B604FF0BF0383F31188BFF336
:103B60006F8FBFF34F8F7B6000BF00BF3B68002BA0
:103B7000FCD000BF00BF0C37BD465DF8047B70472A
:103B8000074B19680868B0E8F04F80F30988BFF365
:103B90006F8F4FF0000080F311887047AFF3008003
:103BA0002401002000BF00BF08480068006880F3BF
:103BB00008884FF0000080F3148862B661B6BFF346
:103BC0004F8FBFF36F8F00DF00BF000008ED00E0F4
:103BD00000BF00BF80B500AF104B1B680F4A43F415
:103BE0007F0313600D4B1B680C4A43F07F43136047
:103BF00000F0A4F80A4B00221A6000F0B9F8094B53
:103C00001B68084A43F040431360FFF7CDFFFFF7FE
:103C1000F7FDFFF79BFF0023184680BD20ED00E075
:103C2000C000002034EF00E080B483B000AF4FF05C
:103C3000BF0383F31188BFF36F8FBFF34F8F7B6098
:103C400000BF054B1B680133034A136000BF0C37EC
:103C5000BD465DF8047B7047C000002080B483B08F
:103C600000AF0A4B1B68013B084A1360074B1B68F7
:103C7000002B05D100237B607B6883F3118800BF94
:103C800000BF0C37BD465DF8047B7047C0000020C4
:103C9000EFF30980BFF36F8F154B1A681EF0100FFA
:103CA00008BF20ED108A20E9F04F10602DE90900CF
:103CB0004FF0BF0080F31188BFF34F8FBFF36F8FBA
:103CC000FFF79EFD4FF0000080F3118809BC1968D2
:103CD0000868B0E8F04F1EF0100F08BFB0EC108A73
:103CE00080F30988BFF36F8F704700BFAFF3008088
:103CF0002401002000BF00BF80B582B000AF4FF0AC
:103D0000BF0383F31188BFF36F8FBFF34F8F7B60C7
:103D100000BFFFF791FC0346002B03D0064B4FF08A
:103D200080521A6000233B603B6883F3118800BF18
:103D300000BF0837BD4680BD04ED00E080B400AF91
:103D4000084B00221A60084B00221A60074B41F60C
:103D50003F721A60034B07221A6000BFBD465DF830
:103D6000047B704710E000E018E000E014E000E0A1
:103D7000DFF80C00016841F4700101607047000039
:103D800088ED00E000BF00BF80B588B000AF78606C
:103D900000237B61FFF764FB434B1B68002B01D1C1
:103DA00000F0CAF87B68002B12D008227B6803F071
:103DB0000703D31A08333B613B69DB437A689A42B5
:103DC00004D87A683B6913447B6001E000237B6080
:103DD0007B68002B60DB7B68002B5DD0334B1B685E
:103DE0007A689A4258D8324BBB61314B1B68FB61F1
:103DF00004E0FB69BB61FB691B68FB61FB695B68F5
:103E00007A689A4203D9FB691B68002BF1D1264BD3
:103E10001B68FA699A423FD0BB691B6808221344A9
:103E20007B61FB691A68BB691A60FB695A687B6829
:103E3000D21A08235B009A420FD9FA697B681344AF
:103E4000FB60FB695A687B68D21AFB685A60FB69A1
:103E50007A685A60F86800F0CBF8144B1A68FB696E
:103E60005B68D31A114A1360104B1A68114B1B6818
:103E70009A4203D20D4B1B680E4A1360FB695B68C4
:103E800043F00042FB695A60FB6900221A600A4B4A
:103E90001B680133084A1360FFF7F0FA7B69184684
:103EA0002037BD4680BD00BF3022002034220020D4
:103EB00028220020382200203C22002080B584B037
:103EC00000AF78607B68FB607B68002B2BD00823F9
:103ED0005B42FA681344FB60FB68BB60BB685B68CD
:103EE000DB0F03F00103DBB2002B1CD0BB681B68A7
:103EF000002B18D1BB685B6823F00042BB685A6096
:103F0000FFF7AEFABB685A68094B1B681344084AAE
:103F10001360B86800F06CF8064B1B680133054A63
:103F20001360FFF7ABFA00BF1037BD4680BD00BF7E
:103F3000342200204022002080B485B000AF4FF42E
:103F40000053BB60254BFB60FB6803F00703002BAD
:103F50000CD0FB680733FB60FB6823F00703FB60B2
:103F6000BA68FB68D31A1D4A1344BB60FB687B60C8
:103F70001B4A7B6813601A4B00225A607B68BA6840
:103F80001344FB600822FB689B1AFB60FB6823F06C
:103F90000703FB60FB68134A1360124B1B68002287
:103FA0005A60104B1B6800221A607B683B603B68BC
:103FB000FA68D21A3B685A600A4B1A683B681A6062
:103FC0003B685B68084A13603B685B68074A13609C
:103FD00000BF1437BD465DF8047B704728020020FF
:103FE0002822002030220020382200203422002005
:103FF00080B485B000AF7860284BFB6002E0FB68BE
:104000001B68FB60FB681B687A689A42F7D8FB68FC
:10401000BB60FB685B68BA6813447A689A4208D14F
:10402000FB685A687B685B681A44FB685A60FB68E7
:104030007B607B68BB607B685B68BA681A44FB681E
:104040001B689A4218D1FB681A68154B1B689A4284
:104050000DD07B685A68FB681B685B681A447B68F4
:104060005A60FB681B681A687B681A6008E00C4B92
:104070001A687B681A6003E0FB681A687B681A603C
:10408000FA687B689A4202D0FB687A681A6000BFBF
:104090001437BD465DF8047B704700BF282200201E
:1040A0003022002080B500AFFCF7D4FFFFF79CF969
:1040B00000BFFDE780B400AF00BFBD465DF8047BE4
:1040C000704780B48BB000AF78607B681B687B6200
:1040D0007B685B683B627B689B68FB617B68DB6835
:1040E000BB617B681B697B617B685B693B617B684B
:1040F0009B69FB607B68DB69BB6002BE00BF2C373D
:10410000BD465DF8047B70471EF0040F0CBFEFF353
:104110000880EFF309808169004A1047C340000816
:1041200000BF80B400AF00BFFDE780B400AF00BFA8
:10413000FDE780B400AF00BFFDE780B400AF00BF73
:10414000BD465DF8047B704780B500AF164BD3F8D1
:104150008830154A43F47003C2F88830134B1B684B
:10416000124A43F001031360104B00229A600F4B78
:104170001B680E4A23F0847323F4803313600B4BC7
:104180000B4A5A60094B1B68084A23F480231360CA
:10419000064B0022DA6000F00DF8034B4FF000628E
:1041A0009A6000BF80BD00BF00ED00E00038024013
:1041B0001030002480B483B000AF00237B60002364
:1041C0003B60354B1B68344A43F480331360324BF9
:1041D0001B6803F400333B607B6801337B603B6802
:1041E000002B03D17B68B3F5A04FF0D12A4B1B689D
:1041F00003F40033002B02D001233B6001E00023D5
:104200003B603B68012B40D1234B1B6C224A43F09F
:1042100080531364214B1B68204A43F440431360CE
:104220001D4B1D4A9B6893601B4B1B4A9B68936008
:10423000194B9B68184A43F480539360164B184AF5
:104240005A60154B1B68144A43F08073136000BF1B
:10425000114B1B6803F00073002BF9D0114B40F297
:1042600002721A600C4B9B680B4A23F003039360A5
:10427000094B9B68084A43F00203936000BF064B5A
:104280009B6803F00C03082BF9D100BF0C37BD4627
:104290005DF8047B704700BF0038024000700040AA
:1042A00019544107003C02400D488546FFF74CFF7A
:1042B0000C480D490D4A002302E0D458C450043381
:1042C000C4188C42F9D30A4A0A4C002301E0136057
:1042D0000432A242FBD300F019F8FFF7E3FEFEE739
:1042E0000000012000000020C4000020A0430008BE
:1042F000C400002044220020FEE70244034693420B
:1043000000D1704703F8011BF9E7000070B50D4DAF
:104310000D4C641BA4100026A64209D10B4D0C4C79
:1043200000F018F8641BA4100026A64205D170BD49
:1043300055F8043B98470136EEE755F8043B98479B
:104340000136F2E7984300089843000898430008B4
:104350009C430008F8B500BFF8BC08BC9E467047F7
:0C436000F8B500BFF8BC08BC9E467047D2
:10436C00765461736B47657444697374616E6365ED
:10437C0000000000765461736B476574537065657B
:0C438C006400000049444C4500000000A3
:04439800C501000853
:04439C00A101000873
:1043A0000000024000010000000402400080000004
:1043B0000000014000000000000402404000000036
:1043C00000040240800000000008004000000000DF
:1043D00000000240000002400010008000000000C9
:1043E00000000040000402400004024020001000D1
:1043F00000000000000400400000024000000240F5
:104400000200010000000000000C004000300140EC
:104410000000024040000000000002408000000058
:1044200000000240200000000000024010000000D8
:10443000000000000008020001000002000000006F
:104440000000000000000000020000000100000069
:10445000020200020200000000020000040000004E
:04446000AAAAAAAAB0
:04000005080042A904
:00000001FF
